S01600006C617365725F6361745F616D73372E7372656389
S11300000C9434000C9451000C9451000C94510045
S11300100C9451000C9451000C9451000C94510018
S11300200C9451000C9451000C9451000C94510008
S11300300C9451000C9451000C9453000C945100F6
S11300400C9451000C9451000C9451000C945100E8
S11300500C9451000C9451000C9451000C945100D8
S11300600C9451000C94510011241FBECFEFD8E022
S1130070DEBFCDBF11E0A0E0B1E0E4ECF4E002C0EB
S113008005900D92A630B107D9F721E0A6E0B1E0C2
S113009001C01D92A131B207E1F70E9428010C941E
S11300A060020C9400001F920F920FB60F9211245D
S11300B02F938F939F93AF93BF9380910D01909152
S11300C00E01A0910F01B09110010196A11DB11D67
S11300D080930D0190930E01A0930F01B093100132
S11300E080319742A105B10508F479C080910801D7
S11300F08823D1F195B180E2892785B981E0809385
S113010007018091090190910A01A0910B01B0911E
S11301100C01892B8A2B8B2BA1F0809109019091E2
S11301200A01A0910B01B0910C010197A109B10939
S11301308093090190930A01A0930B01B0930C01E1
S113014046C080E29CE1A0E0B0E080930901909376
S11301500A01A0930B01B0930C011092080195B110
S113016080E1892785B933C08091090190910A0102
S1130170A0910B01B0910C01892B8A2B8B2BA1F040
S11301808091090190910A01A0910B01B0910C0199
S11301900197A109B1098093090190930A01A093E1
S11301A00B01B0930C0113C08CE390E0A0E0B0E02D
S11301B08093090190930A01A0930B01B0930C0161
S11301C081E08093080195B180E1892785B9109277
S11301D00D0110920E0110920F0110921001BF91A7
S11301E0AF919F918F912F910F900FBE0F901F9001
S11301F01895229AE0E8F0E0808180628083808113
S113020083608083E1E8F0E080818861808380817D
S11302108460808382EE94E09093890080938800C8
S11302208091040190E090938B0080938A0008955C
S113023016BC259A84B5826084BD85B5826085BD6F
S1130240EEE6F0E080818260808387EC87BD0895CC
S113025078940E94F9000E941801249A04E110E0A5
S1130260FF24F394CAE8D0E0809107018823E1F3E6
S113027080910601882361F00E94ED01B8010E947B
S11302807901855B909106019F25909306010BC02F
S11302900E94ED01B8010E947901815A90910601F2
S11302A09F2590930601909104018917F9F0482F36
S11302B050E0292F30E0241B350B1216130624F4CA
S11302C091509093040103C09F5F90930401EFE366
S11302D0FCE93197F1F700C000002091040130E0FF
S11302E039832883909104019813E3CF1092070176
S11302F0BBCF97FB072E16F4009407D077FD09D0E7
S11303000E948D0107FC05D03EF4909581959F4F86
S11303100895709561957F4F0895AA1BBB1B51E109
S113032007C0AA1FBB1FA617B70710F0A61BB70B61
S1130330881F991F5A95A9F780959095BC01CD0106
S113034008958F929F92AF92BF92CF92DF92EF92D5
S1130350FF92CF93DF93EC01688179818A819B813D
S1130360611571058105910521F464E279ED8BE550
S113037097E02DE133EF41E050E00E94FD01490197
S11303805A019B01AC01A7EAB1E40E941C026B0173
S11303907C01ACEEB4EFA50194010E942A02DC01B9
S11303A0CB018C0D9D1DAE1DBF1DB7FF03C0019772
S11303B0A109B04888839983AA83BB839F77DF917F
S11303C0CF91FF90EF90DF90CF90BF90AF909F9030
S11303D08F9008950E94A101089580E091E00E9409
S11303E0A1010895A0E0B0E0809300019093010181
S11303F0A0930201B09303010895052E97FB1EF408
S113040000940E94140257FD07D00E942F0207FC9B
S113041003D04EF40C9414025095409530952195D8
S11304203F4F4F4F5F4F089590958095709561951C
S11304307F4F8F4F9F4F08950E945102A59F900DAB
S1130440B49F900DA49F800D911D11240895B7FFB2
S11304500C941C020E941C02821B930B0895A1E2BF
S11304601A2EAA1BBB1BFD010DC0AA1FBB1FEE1F2A
S1130470FF1FA217B307E407F50720F0A21BB30B75
S1130480E40BF50B661F771F881F991F1A9469F7F1
S113049060957095809590959B01AC01BD01CF014D
S11304A00895A29FB001B39FC001A39F700D811D49
S11304B01124911DB29F700D811D1124911D089569
S10704C0F894FFCFDA
S10904C4010000005F00CE
S9030000FC
